{
  "transactions": [
    {
      "hash": "0x3937d3f04c56e82138e6cc85f698f3d9d4e08cebd6a19661bbae551ba5abd3a3",
      "transactionType": "CALL",
      "contractName": null,
      "contractAddress": "0xa267c1f337dbe9a2497fc8d2405227f98fe64427",
      "function": "mint(address)",
      "arguments": [
        "0x00dC0454E2FdE88f43F1583657721F5008D35C45"
      ],
      "transaction": {
        "from": "0x040495b88abd76e4f184f18a642bcc492e9d4e99",
        "to": "0xa267c1f337dbe9a2497fc8d2405227f98fe64427",
        "gas": "0x14f20",
        "value": "0x0",
        "input": "0x6a62784200000000000000000000000000dc0454e2fde88f43f1583657721f5008d35c45",
        "nonce": "0xa",
        "chainId": "0xaa36a7"
      },
      "additionalContracts": [],
      "isFixedGasLimit": false
    }
  ],
  "receipts": [
    {
      "status": "0x1",
      "cumulativeGasUsed": "0x1d0f620",
      "logs": [
        {
          "address": "0xa267c1f337dbe9a2497fc8d2405227f98fe64427",
          "topics": [
            "0xddf252ad1be2c89b69c2b068fc378daa952ba7f163c4a11628f55a4df523b3ef",
            "0x0000000000000000000000000000000000000000000000000000000000000000",
            "0x00000000000000000000000000dc0454e2fde88f43f1583657721f5008d35c45",
            "0x0000000000000000000000000000000000000000000000000000000000000002"
          ],
          "data": "0x",
          "blockHash": "0xa5f9da9f58666f84927dc320fe052c387bac75b70d510659e3e04ff2e006169e",
          "blockNumber": "0xaa2842",
          "blockTimestamp": "0x6a3fd13c",
          "transactionHash": "0x3937d3f04c56e82138e6cc85f698f3d9d4e08cebd6a19661bbae551ba5abd3a3",
          "transactionIndex": "0xab",
          "logIndex": "0x54b",
          "removed": false
        }
      ],
      "logsBloom": "0x04000000000000000000000000000000000000000000000000000000000000000000000000000000000000000000000000000000000000000000000000000000000000000000000000000008000200000000000000000000000000000000000000000000020000000000000000000c00000000000000000000000010000000000000000000000000000000000000000000000000000000100000000000000000000000000000000000100100000100000000000000000000000000000000000000000002000800000000000000000000000000000000000000000000000020000000000000000000000000000000000000000000008000000000000000000000",
      "type": "0x2",
      "transactionHash": "0x3937d3f04c56e82138e6cc85f698f3d9d4e08cebd6a19661bbae551ba5abd3a3",
      "transactionIndex": "0xab",
      "blockHash": "0xa5f9da9f58666f84927dc320fe052c387bac75b70d510659e3e04ff2e006169e",
      "blockNumber": "0xaa2842",
      "gasUsed": "0xf2a0",
      "effectiveGasPrice": "0x19858023d",
      "from": "0x040495b88abd76e4f184f18a642bcc492e9d4e99",
      "to": "0xa267c1f337dbe9a2497fc8d2405227f98fe64427",
      "contractAddress": null
    }
  ],
  "libraries": [],
  "pending": [],
  "returns": {},
  "timestamp": 1782567228972,
  "chain": 11155111,
  "commit": "7ff9ed2"
}